:100000000C942A000C9450000C9447000C94470068
:100010000C9447000C9447000C9447000C94470044
:100020000C9447000C9447000C9447000C94470034
:100030000C9447000C9447000C9447000C94470024
:100040000C9447000C9447000C9447000C94470014
:100050000C94470011241FBECFE5D8E0DEBFCDBF12
:1000600010E0A0E6B0E0ECE0F9E002C005900D92EF
:10007000A836B107D9F710E0A8E6B0E001C01D929C
:10008000AC36B107E1F70E94D0030C9484040C94C1
:100090000000009721F09093690080936800089514
:1000A0001F920F920FB60F9211242F933F934F93ED
:1000B0005F936F937F938F939F93AF93BF93EF93D0
:1000C000FF93E0916800F0916900309709F009957D
:1000D000FF91EF91BF91AF919F918F917F916F9120
:1000E0005F914F913F912F910F900FBE0F901F90F6
:1000F000189585B78E7F85BF85B78D7F85BF8BB7F8
:1001000080648BBF089585B78B7F85BF85B7877F58
:1001100085BF089508950895982F862F81508E3FAA
:1001200080F0913049F0913028F0923039F09330DE
:1001300041F406C06ABB089567BB089564BB089587
:1001400061BB0895382F883008F078C0613029F1FC
:10015000613038F0623009F43CC0633009F06EC0A1
:1001600053C0413059F42AB381E090E002C0880FB7
:10017000991F3A95E2F7282B2ABB0895442309F0EA
:100180005DC02AB381E090E002C0880F991F3A95C4
:10019000E2F7809582238ABB0895413059F427B352
:1001A00081E090E002C0880F991F3A95E2F7282B72
:1001B00027BB0895442309F041C027B381E090E0B4
:1001C00002C0880F991F3A95E2F78095822387BB7A
:1001D0000895413059F424B381E090E002C0880FC3
:1001E000991F3A95E2F7282B24BB0895442331F553
:1001F00024B381E090E002C0880F991F3A95E2F79E
:100200008095822384BB0895413059F421B381E065
:1002100090E002C0880F991F3A95E2F7282B21BB86
:100220000895442359F421B381E090E002C0880F7F
:10023000991F3A95E2F78095822381BB0895982F04
:10024000862F81508E3F80F0913049F0913028F018
:10025000923039F0933041F406C06BBB089568BB0F
:10026000089565BB089565BB0895382F883008F060
:1002700078C0613029F1613038F0623009F43CC057
:10028000633009F06EC053C0413059F42BB381E0A4
:1002900090E002C0880F991F3A95E2F7282B2BBBFC
:1002A0000895442309F05DC02BB381E090E002C0C3
:1002B000880F991F3A95E2F7809582238BBB0895AA
:1002C000413059F428B381E090E002C0880F991FB3
:1002D0003A95E2F7282B28BB0895442309F041C042
:1002E00028B381E090E002C0880F991F3A95E2F7A9
:1002F0008095822388BB0895413059F425B381E06D
:1003000090E002C0880F991F3A95E2F7282B25BB91
:100310000895442331F525B381E090E002C0880FB1
:10032000991F3A95E2F78095822385BB0895413065
:1003300059F422B381E090E002C0880F991F3A95EA
:10034000E2F7282B22BB0895442359F422B381E01D
:1003500090E002C0880F991F3A95E2F780958223BA
:1003600082BB0895FB016115710591F0813049F060
:10037000813028F0823039F0833051F407C089B3DE
:1003800003C086B301C083B38083089580B38083A4
:100390000895282FFA01883000F5613049F0613066
:1003A00028F0623039F06330C1F40EC089B303C065
:1003B00086B301C083B390E002C0959587952A95D6
:1003C000E2F781708083089580B390E002C0959534
:1003D00087952A95E2F7817080830895382F8830B9
:1003E000A0F5613091F0613028F06230C9F06330DF
:1003F00061F521C02BB381E090E002C0880F991F06
:100400003A95E2F728272BBB089528B381E090E0C6
:1004100002C0880F991F3A95E2F7282728BB089554
:1004200025B381E090E002C0880F991F3A95E2F76A
:10043000282725BB089522B381E090E002C0880FF1
:10044000991F3A95E2F7282722BB0895582F853047
:1004500008F050C0842F90E08F709070052E02C07D
:10046000880F991F0A94E2F7482F6130B9F0613084
:1004700030F0623011F1633009F03CC02DC08BB315
:100480002FE030E002C0220F331F5A95E2F720958B
:1004900028232BBB8BB3482B4BBB089588B32FE08D
:1004A00030E002C0220F331F5A95E2F7209528232F
:1004B00028BB88B3482B48BB089585B32FE030E0B4
:1004C00002C0220F331F5A95E2F72095282325BB3F
:1004D00085B3482B45BB089582B32FE030E002C0BE
:1004E000220F331F5A95E2F72095282322BB82B3AF
:1004F000482B42BB08953E9A3F9830983198329AE3
:100500003D98089597B1907E97B997B18F71892BD7
:1005100087B9369A349BFECF24B135B1C90108950D
:10052000EF92FF921F93182F82E061E040E00E945B
:10053000350181E061E041E00E943501412F4295A3
:100540004F7084E060E00E94260283E061E041E0B9
:100550000E94350180E4E82E8FE1F82EC701019753
:10056000F1F783E061E040E00E94350184E060E063
:10057000412F0E94260283E061E041E00E943501A4
:10058000C7010197F1F783E061E040E00E94350187
:100590001F91FF90EF90089503C06AE00E947804D5
:1005A0008823D9F708951F93CF93DF93EC0110E0D0
:1005B00003C00E9490021F5FFE01E10FF11D8081C8
:1005C0008823B9F7DF91CF911F910895EF92FF92A1
:1005D0001F93182F82E061E040E00E94350181E026
:1005E00061E040E00E943501412F42954F7084E068
:1005F00060E00E94260283E061E041E00E94350154
:1006000090E4E92E9FE1F92EC7010197F1F783E00D
:1006100061E040E00E94350184E060E0412F0E94EB
:10062000260283E061E041E00E943501C7010197A5
:10063000F1F783E061E040E00E9435011F91FF90F7
:10064000EF900895823068F4603158F4882329F4DB
:10065000862F80580E94E6020895862F80540E94BB
:10066000E60208951F93CF93DF93EC01862F642F4A
:100670000E94220310E003C00E9490021F5FFE014F
:10068000E10FF11D80818823B9F7DF91CF911F9190
:100690000895EF92FF920F931F938EE591E020E96A
:1006A00031E0F9013197F1F70197D9F784E060E083
:1006B00041E00E94A20085E060E041E00E94A200CB
:1006C00086E060E041E00E94A20087E060E041E057
:1006D0000E94A20081E061E041E00E94A20082E06D
:1006E00061E041E00E94A20083E061E041E00E94FD
:1006F000A20084E060E042E00E94260283E061E024
:1007000041E00E94350120E4E22E2FE1F22EC701E4
:100710000197F1F783E061E040E00E94350100EAD3
:100720001FE0C8010197F1F788E20E94E602C801C4
:100730000197F1F78FE00E94E602C8010197F1F7F7
:1007400081E00E94E602C7010197F1F786E00E946E
:10075000E6021F910F91FF90EF9008958FB58E7F65
:100760008FBD8FB582608FBD8EB580618EBD8EB519
:1007700088608EBD8FB580688FBD8FB58F7B8FBD34
:100780008EB581608EBD8EB582608EBD8EB58B7F3D
:100790008EBD089597BD86BD08959BBD8ABD089501
:1007A000CF92DF92EF92FF920F931F93DF93CF933D
:1007B000CDB7DEB72E970FB6F894DEBF0FBECDBF14
:1007C00088E890E097BD86BD0E94AE030E94490371
:1007D00083E062E041E00E94A20084E062E041E048
:1007E0000E94A20085E063E041E00E94A200DE01D9
:1007F0001196E0E6F0E087E001900D928150E1F77C
:1008000084E490E2ADE3B0E088879987AA87BB874C
:10081000FE013C9683E0DF011D928A95E9F784ECA6
:10082000C82ED12C7E010894E11CF11C8E01085FBA
:100830001F4F83E062E041E00E94350184E062E006
:1008400040E00E943501DBBCCABCC7010E94D30254
:1008500085E30E94900280E30E94900288E60E9455
:1008600090028AE70E9490028FE20E949002C801E3
:100870000E94D30285E30E94900280E30E949002CE
:1008800085E20E94900281E060E00E9422038DE2F6
:100890000E9490028DE20E9490028DE20E949002DE
:1008A0008DE20E9490028CE70E9490028FE50E94E8
:1008B00090028FE50E9490028FE50E9490028FE5E2
:1008C0000E9490028CE70E9490028DE20E949002AA
:1008D0008DE20E9490028DE20E9490028DE20E94C1
:1008E00090028CE70E9490028FE50E949002A1CFB7
:1008F000991B79E004C0991F961708F0961B881F72
:0C0900007A95C9F780950895F894FFCF10
:08090C0046726571203D0000F8
:00000001FF
